:020000020000FC
:0200000008C036
:0200080051C0E5
:1000100054C00FE50DBF02E00EBF0FEF11270ABB62
:1000200004BB01BB0FE3202E06E0302E0BE5402E73
:100030000FE4502E06E6602E0DE6702E0DE7802EA2
:1000400007E2902E0FE7A02E0FE6B02E34E039BF66
:1000500006E003BF02E00EBD32E035BD55E654BDFB
:100060007894442766277727B1E03AD0AF3F09F06C
:1000700001C0AA273CD048D072B7773039F064B5B8
:100080006E3F19F430E439BF00C0F4CFA33611F449
:10009000AA2701C0A3951CD0772772BF1AE043E0BE
:1000A00000EF04BD0FEF0DBD0CBDE4CF54BD39B35F
:1000B00034273BBB34E039BF18951A9541F42BE047
:1000C0002DBD2DED2CBD10E000E044274BBB189555
:1000D000E199FECF8FBB9EBBADBBE29AE19A08953A
:1000E000E199FECF8FBB9EBBE09AADB30895B5BB3F
:1000F000B13011F4C2BB01C0D2BBBB0FB43009F0A8
:100100000895EE27B1E0FCCFCA2FCA3010F4D0E03A
:100110000CC0D0E00AE0002ED3950D9EC019CA3065
:1001200020F00AE0002EDA2FF7CFE2E0EC0FC081DA
:0A013000E2E0ED0FD081F2BB08956C
:00000001FF
