:020000020000FC
:0200000012C02C
:0200080037C0FF
:0400100038C042C0F2
:1000240040C00FE50DBF02E00EBF0027002E70E0B8
:1000340060E0002D42D00FEF0ABB04BB01BB08BB3C
:1000440006E003BF05E409BF00E404BF00E20BBF00
:1000540078940AEF02BF11E023E733EB45EB3DBD93
:100064004CBD52B70027051B05BB70E060E01ED0F5
:1000740002BBF7CF24BD09B301270BBB189500E0E1
:1000840005BD0EBD0AEF02BF039470E060E0002DD1
:1000940014D0189502E005BD04E00EBD3DBD4CBD75
:1000A4001895002470E060E0002D07D0E199FECFA0
:1000B4007FBB6EBBE09A0DB30895E199FECF7FBB81
:0A00C4006EBB0DBBE29AE19A0895AD
:00000001FF
