:020000020000FC
:0200000009C035
:1000120034C00FE50DBF02E00EBF0FEF0ABB04BBF9
:1000220008BB02E003BF01E009BF789409E9602E32
:1000320021E04FE356E06BE57FE486E69DE6ADE71F
:10004200B7E2CFE7DFE606E0502E09E3402E00E4F8
:10005200302E06E0202E0FE3102E08E7002EFF2799
:10006200EE2714E0B09B15C0B19B1AC0B29B1FC013
:10007200B39B24C0B49B29C0F5CFFBBB109515BB25
:10008200109501910BBB110F08F01895EE2714E0A3
:10009200FCCFB09901C0FDCF1FD006E0502EE2CFB9
:1000A200B19901C0FDCF18D00BE5502EDBCFB2992C
:1000B20001C0FDCF11D00FE4502ED4CFB39901C0AF
:1000C200FDCF0AD006E6502ECDCFB49901C0FDCFA8
:1000D20003D00DE6502EC6CFEF93261511F421E082
:1000E20001C02395E4E1322F3F703A3061F0E30F13
:1000F2003081232E322F32953F70E4E1E30F3081BD
:0C010200132EEF910895E6E02E0FECCFD5
:00000001FF
