:020000020000FC
:020000000EC030
:040010002FC021C01C
:10001C0019C00FE50DBF02E00EBF0FEF01BB07BB10
:10002C0004BB0DEE06B900E207B932E033BF32E093
:10003C003EBD35E039BF78944FEF21E0FF27E0E07B
:10004C0005BBFECF14B105B11895F8BB3191220F49
:10005C0028F0209522BB209538BB189521E0E0E0D4
:10006C003191F7CF4395403081F04130E9F0423087
:10007C0051F14330B9F1443031F0453029F046307C
:10008C0009F44FEF18953DC04BC0FF93EF93F1E08F
:10009C00EAE4059015902590359045905590659023
:1000AC007490EF91FF91EECFFF93EF93F1E0E2E5C7
:1000BC0005901590259035904590559065907490CD
:1000CC00EF91FF91DFCFFF93EF93F1E0EAE505901D
:1000DC001590259035904590559065907490EF91C2
:1000EC00FF91D0CFFF93EF93F1E0E2E605901590EE
:1000FC00259035904590559065907490EF91FF91B7
:10010C00C1CFFF93EF93F1E0EAE6059015902590AF
:10011C0035904590559065907490EF91FF91B2CFCA
:10012C00FF93EF93F1E0E2E7059015902590359061
:10013C004590559065907490EF91FF91A3CF007C02
:10014C008282827C0002002242FE020200040042F3
:10015C00868A9262000800448292926C0010000819
:0E016C00182848FE002000F49292928C004069
:00000001FF
