:020000020000FC
:0600000009C043C058C016
:1000120069C01FE51DBF12E01EBF11E019BF13E04A
:1000220013BFDEE0D5BFD0EEDBBF1FEF1ABB14BBA0
:1000320010EF12BB21E030EC40E450E460E477279B
:100042001FE3012E16E0112E1BE5212E1FE4312E97
:1000520016E6412E1DE6512E1DE7612E17E2712E86
:100062001FE7812E1FE6912E17E7A12E1CE7B12E66
:1000720019E3C12E1EE5D12E19E7E12E11E7F12E6B
:10008200FF2778941127FFCF703021F473953F77C3
:1000920040680FC0713021F473954F77506809C0E2
:1000A200723021F473955F77606803C077276F77AA
:1000B20030681895D0B3D295DF70E0E0ED0FD081B3
:1000C200703019F43D2F30680CC0713019F44D2F87
:1000D200406807C0723019F45D2F506802C06D2F5E
:1000E200606818951BBB25BB213019F43BBB220F5E
:1000F2000CC0223019F44BBB220F07C0243019F474
:0C0102005BBB220F02C06BBB21E0189514
:00000001FF
