:020000020000FC
:0600000009C044C0A1C0CC
:1000120031C00FE50DBF02E00EBF0BD01AD0FF2793
:10002200EE2711E015BB00810BBB000000000000B1
:10003200FCCF0FEF0ABB08BB04BB02BB03E003BF4C
:1000420001E009BF21EC03E005BF00EC0BBF78948F
:10005200089500E4702E00E4602E00E4502E00E4C7
:10006200402E00E4302E00E4202E00E4102E00E4A6
:10007200002E089522BFFBBBE395110F11F411E08E
:10008200EE2715BB00810BBB1895872C762C652CAF
:10009200542C432C322C212C102C36B33E3711F128
:1000A2003E3B21F13E3D29F13E3E31F13D3739F1F2
:1000B2003D3B41F13D3D49F13D3E51F13B3759F167
:1000C2003B3B61F13B3D69F13B3E71F1373779F1E1
:1000D200373B81F1373D89F1373E91F146B3431702
:1000E200E9F3189500E4802EB4DFF8CF0FE3002E79
:1000F200F5CF08E4002EF2CF02E5002EEFCF06E0A6
:10010200002EECCF0BE5002EE9CF0FE4002EE6CF58
:1001120000E4002EE3CF06E6002EE0CF0DE6002E2F
:10012200DDCF0DE7002EDACF06E7002ED7CF07E2AC
:10013200002ED4CF0FE7002ED1CF0FE6002ECECF68
:1001420009E4002ECBCF00E4802E012C122C232CAC
:0E015200342C452C562C672C782C892C1895B3
:00000001FF
